{
  "_format": "hh3-artifact-1",
  "contractName": "Dorz2",
  "sourceName": "contracts/Dorz2.sol",
  "abi": [
    {
      "inputs": [],
      "stateMutability": "nonpayable",
      "type": "constructor"
    },
    {
      "inputs": [
        {
          "internalType": "address",
          "name": "target",
          "type": "address"
        }
      ],
      "name": "AddressEmptyCode",
      "type": "error"
    },
    {
      "inputs": [
        {
          "internalType": "address",
          "name": "implementation",
          "type": "address"
        }
      ],
      "name": "ERC1967InvalidImplementation",
      "type": "error"
    },
    {
      "inputs": [],
      "name": "ERC1967NonPayable",
      "type": "error"
    },
    {
      "inputs": [
        {
          "internalType": "address",
          "name": "spender",
          "type": "address"
        },
        {
          "internalType": "uint256",
          "name": "allowance",
          "type": "uint256"
        },
        {
          "internalType": "uint256",
          "name": "needed",
          "type": "uint256"
        }
      ],
      "name": "ERC20InsufficientAllowance",
      "type": "error"
    },
    {
      "inputs": [
        {
          "internalType": "address",
          "name": "sender",
          "type": "address"
        },
        {
          "internalType": "uint256",
          "name": "balance",
          "type": "uint256"
        },
        {
          "internalType": "uint256",
          "name": "needed",
          "type": "uint256"
        }
      ],
      "name": "ERC20InsufficientBalance",
      "type": "error"
    },
    {
      "inputs": [
        {
          "internalType": "address",
          "name": "approver",
          "type": "address"
        }
      ],
      "name": "ERC20InvalidApprover",
      "type": "error"
    },
    {
      "inputs": [
        {
          "internalType": "address",
          "name": "receiver",
          "type": "address"
        }
      ],
      "name": "ERC20InvalidReceiver",
      "type": "error"
    },
    {
      "inputs": [
        {
          "internalType": "address",
          "name": "sender",
          "type": "address"
        }
      ],
      "name": "ERC20InvalidSender",
      "type": "error"
    },
    {
      "inputs": [
        {
          "internalType": "address",
          "name": "spender",
          "type": "address"
        }
      ],
      "name": "ERC20InvalidSpender",
      "type": "error"
    },
    {
      "inputs": [],
      "name": "FailedCall",
      "type": "error"
    },
    {
      "inputs": [],
      "name": "InvalidInitialization",
      "type": "error"
    },
    {
      "inputs": [],
      "name": "NotInitializing",
      "type": "error"
    },
    {
      "inputs": [
        {
          "internalType": "address",
          "name": "owner",
          "type": "address"
        }
      ],
      "name": "OwnableInvalidOwner",
      "type": "error"
    },
    {
      "inputs": [
        {
          "internalType": "address",
          "name": "account",
          "type": "address"
        }
      ],
      "name": "OwnableUnauthorizedAccount",
      "type": "error"
    },
    {
      "inputs": [],
      "name": "UUPSUnauthorizedCallContext",
      "type": "error"
    },
    {
      "inputs": [
        {
          "internalType": "bytes32",
          "name": "slot",
          "type": "bytes32"
        }
      ],
      "name": "UUPSUnsupportedProxiableUUID",
      "type": "error"
    },
    {
      "anonymous": false,
      "inputs": [
        {
          "indexed": true,
          "internalType": "address",
          "name": "owner",
          "type": "address"
        },
        {
          "indexed": true,
          "internalType": "address",
          "name": "spender",
          "type": "address"
        },
        {
          "indexed": false,
          "internalType": "uint256",
          "name": "value",
          "type": "uint256"
        }
      ],
      "name": "Approval",
      "type": "event"
    },
    {
      "anonymous": false,
      "inputs": [
        {
          "indexed": false,
          "internalType": "uint64",
          "name": "version",
          "type": "uint64"
        }
      ],
      "name": "Initialized",
      "type": "event"
    },
    {
      "anonymous": false,
      "inputs": [
        {
          "indexed": true,
          "internalType": "address",
          "name": "previousOwner",
          "type": "address"
        },
        {
          "indexed": true,
          "internalType": "address",
          "name": "newOwner",
          "type": "address"
        }
      ],
      "name": "OwnershipTransferred",
      "type": "event"
    },
    {
      "anonymous": false,
      "inputs": [
        {
          "indexed": true,
          "internalType": "address",
          "name": "from",
          "type": "address"
        },
        {
          "indexed": true,
          "internalType": "address",
          "name": "to",
          "type": "address"
        },
        {
          "indexed": false,
          "internalType": "uint256",
          "name": "value",
          "type": "uint256"
        }
      ],
      "name": "Transfer",
      "type": "event"
    },
    {
      "anonymous": false,
      "inputs": [
        {
          "indexed": true,
          "internalType": "address",
          "name": "implementation",
          "type": "address"
        }
      ],
      "name": "Upgraded",
      "type": "event"
    },
    {
      "inputs": [],
      "name": "UPGRADE_INTERFACE_VERSION",
      "outputs": [
        {
          "internalType": "string",
          "name": "",
          "type": "string"
        }
      ],
      "stateMutability": "view",
      "type": "function"
    },
    {
      "inputs": [
        {
          "internalType": "address",
          "name": "owner",
          "type": "address"
        },
        {
          "internalType": "address",
          "name": "spender",
          "type": "address"
        }
      ],
      "name": "allowance",
      "outputs": [
        {
          "internalType": "uint256",
          "name": "",
          "type": "uint256"
        }
      ],
      "stateMutability": "view",
      "type": "function"
    },
    {
      "inputs": [
        {
          "internalType": "address",
          "name": "spender",
          "type": "address"
        },
        {
          "internalType": "uint256",
          "name": "value",
          "type": "uint256"
        }
      ],
      "name": "approve",
      "outputs": [
        {
          "internalType": "bool",
          "name": "",
          "type": "bool"
        }
      ],
      "stateMutability": "nonpayable",
      "type": "function"
    },
    {
      "inputs": [
        {
          "internalType": "address",
          "name": "account",
          "type": "address"
        }
      ],
      "name": "balanceOf",
      "outputs": [
        {
          "internalType": "uint256",
          "name": "",
          "type": "uint256"
        }
      ],
      "stateMutability": "view",
      "type": "function"
    },
    {
      "inputs": [],
      "name": "decimals",
      "outputs": [
        {
          "internalType": "uint8",
          "name": "",
          "type": "uint8"
        }
      ],
      "stateMutability": "view",
      "type": "function"
    },
    {
      "inputs": [],
      "name": "getNaik",
      "outputs": [
        {
          "internalType": "uint256",
          "name": "angka",
          "type": "uint256"
        }
      ],
      "stateMutability": "view",
      "type": "function"
    },
    {
      "inputs": [
        {
          "internalType": "uint256",
          "name": "_num",
          "type": "uint256"
        }
      ],
      "name": "initialize",
      "outputs": [],
      "stateMutability": "nonpayable",
      "type": "function"
    },
    {
      "inputs": [],
      "name": "naik",
      "outputs": [],
      "stateMutability": "nonpayable",
      "type": "function"
    },
    {
      "inputs": [],
      "name": "name",
      "outputs": [
        {
          "internalType": "string",
          "name": "",
          "type": "string"
        }
      ],
      "stateMutability": "view",
      "type": "function"
    },
    {
      "inputs": [],
      "name": "owner",
      "outputs": [
        {
          "internalType": "address",
          "name": "",
          "type": "address"
        }
      ],
      "stateMutability": "view",
      "type": "function"
    },
    {
      "inputs": [],
      "name": "proxiableUUID",
      "outputs": [
        {
          "internalType": "bytes32",
          "name": "",
          "type": "bytes32"
        }
      ],
      "stateMutability": "view",
      "type": "function"
    },
    {
      "inputs": [],
      "name": "renounceOwnership",
      "outputs": [],
      "stateMutability": "nonpayable",
      "type": "function"
    },
    {
      "inputs": [],
      "name": "symbol",
      "outputs": [
        {
          "internalType": "string",
          "name": "",
          "type": "string"
        }
      ],
      "stateMutability": "view",
      "type": "function"
    },
    {
      "inputs": [],
      "name": "totalSupply",
      "outputs": [
        {
          "internalType": "uint256",
          "name": "",
          "type": "uint256"
        }
      ],
      "stateMutability": "view",
      "type": "function"
    },
    {
      "inputs": [
        {
          "internalType": "address",
          "name": "to",
          "type": "address"
        },
        {
          "internalType": "uint256",
          "name": "value",
          "type": "uint256"
        }
      ],
      "name": "transfer",
      "outputs": [
        {
          "internalType": "bool",
          "name": "",
          "type": "bool"
        }
      ],
      "stateMutability": "nonpayable",
      "type": "function"
    },
    {
      "inputs": [
        {
          "internalType": "address",
          "name": "from",
          "type": "address"
        },
        {
          "internalType": "address",
          "name": "to",
          "type": "address"
        },
        {
          "internalType": "uint256",
          "name": "value",
          "type": "uint256"
        }
      ],
      "name": "transferFrom",
      "outputs": [
        {
          "internalType": "bool",
          "name": "",
          "type": "bool"
        }
      ],
      "stateMutability": "nonpayable",
      "type": "function"
    },
    {
      "inputs": [
        {
          "internalType": "address",
          "name": "newOwner",
          "type": "address"
        }
      ],
      "name": "transferOwnership",
      "outputs": [],
      "stateMutability": "nonpayable",
      "type": "function"
    },
    {
      "inputs": [],
      "name": "upgradeIncrement",
      "outputs": [
        {
          "internalType": "uint256",
          "name": "",
          "type": "uint256"
        }
      ],
      "stateMutability": "view",
      "type": "function"
    },
    {
      "inputs": [
        {
          "internalType": "address",
          "name": "newImplementation",
          "type": "address"
        },
        {
          "internalType": "bytes",
          "name": "data",
          "type": "bytes"
        }
      ],
      "name": "upgradeToAndCall",
      "outputs": [],
      "stateMutability": "payable",
      "type": "function"
    },
    {
      "inputs": [],
      "name": "vdAddress",
      "outputs": [
        {
          "internalType": "address",
          "name": "tokenAmount",
          "type": "address"
        }
      ],
      "stateMutability": "view",
      "type": "function"
    },
    {
      "inputs": [],
      "name": "version",
      "outputs": [
        {
          "internalType": "string",
          "name": "",
          "type": "string"
        }
      ],
      "stateMutability": "pure",
      "type": "function"
    }
  ],
  "bytecode": "0x60a060405230608052348015610013575f5ffd5b5061001c610021565b6100d3565b7ff0c57e16840df040f15088dc2f81fe391c3923bec73e23a9662efc9c229c6a00805468010000000000000000900460ff16156100715760405163f92ee8a960e01b815260040160405180910390fd5b80546001600160401b03908116146100d05780546001600160401b0319166001600160401b0390811782556040519081527fc7f505b2f371ae2175ee4913f4499e1f2633a7b5936321eed1cdaeb6115181d29060200160405180910390a15b50565b6080516114de6100f95f395f818161087a015281816108a301526109e201526114de5ff3fe608060405260043610610126575f3560e01c806370a08231116100a8578063a9059cbb1161006d578063a9059cbb14610341578063ad3cb1cc14610360578063cc59de0214610390578063dd62ed3e146103a4578063f2fde38b146103c3578063fe4b84df146103e2575f5ffd5b806370a082311461028a578063715018a6146102ca5780638da5cb5b146102de57806395d89b411461031a578063a597501e1461032e575f5ffd5b80634f1ef286116100ee5780634f1ef286146101fa57806352d1902d1461020f57806354fd4d50146102235780635f80491e146102505780636fb3de2114610264575f5ffd5b806306fdde031461012a578063095ea7b31461015457806318160ddd1461018357806323b872dd146101c0578063313ce567146101df575b5f5ffd5b348015610135575f5ffd5b5061013e610401565b60405161014b9190610fea565b60405180910390f35b34801561015f575f5ffd5b5061017361016e36600461103a565b6104c1565b604051901515815260200161014b565b34801561018e575f5ffd5b507f52c63247e1f47db19d5ce0460030c497f067ca4cebf71ba98eeadabe20bace02545b60405190815260200161014b565b3480156101cb575f5ffd5b506101736101da366004611062565b6104da565b3480156101ea575f5ffd5b506040516012815260200161014b565b61020d6102083660046110b0565b6104ff565b005b34801561021a575f5ffd5b506101b261051e565b34801561022e575f5ffd5b506040805180820190915260058152640322e302e360dc1b602082015261013e565b34801561025b575f5ffd5b5061020d610539565b34801561026f575f5ffd5b50305b6040516001600160a01b03909116815260200161014b565b348015610295575f5ffd5b506101b26102a4366004611174565b6001600160a01b03165f9081525f5160206114695f395f51905f52602052604090205490565b3480156102d5575f5ffd5b5061020d610551565b3480156102e9575f5ffd5b507f9016d09d72d40fdae2fd8ceac6b6234c7706214fd39c1cd1e609a0528c199300546001600160a01b0316610272565b348015610325575f5ffd5b5061013e610564565b348015610339575f5ffd5b505f546101b2565b34801561034c575f5ffd5b5061017361035b36600461103a565b6105a2565b34801561036b575f5ffd5b5061013e604051806040016040528060058152602001640352e302e360dc1b81525081565b34801561039b575f5ffd5b506101b25f5481565b3480156103af575f5ffd5b506101b26103be36600461118d565b6105af565b3480156103ce575f5ffd5b5061020d6103dd366004611174565b6105f8565b3480156103ed575f5ffd5b5061020d6103fc3660046111be565b61063a565b7f52c63247e1f47db19d5ce0460030c497f067ca4cebf71ba98eeadabe20bace0380546060915f5160206114695f395f51905f529161043f906111d5565b80601f016020809104026020016040519081016040528092919081815260200182805461046b906111d5565b80156104b65780601f1061048d576101008083540402835291602001916104b6565b820191905f5260205f20905b81548152906001019060200180831161049957829003601f168201915b505050505091505090565b5f336104ce81858561079c565b60019150505b92915050565b5f336104e78582856107ae565b6104f2858585610812565b60019150505b9392505050565b61050761086f565b61051082610913565b61051a828261091b565b5050565b5f6105276109d7565b505f5160206114895f395f51905f5290565b60015f5f82825461054a9190611221565b9091555050565b610559610a20565b6105625f610a7b565b565b7f52c63247e1f47db19d5ce0460030c497f067ca4cebf71ba98eeadabe20bace0480546060915f5160206114695f395f51905f529161043f906111d5565b5f336104ce818585610812565b6001600160a01b039182165f9081527f52c63247e1f47db19d5ce0460030c497f067ca4cebf71ba98eeadabe20bace016020908152604080832093909416825291909152205490565b610600610a20565b6001600160a01b03811661062e57604051631e4fbdf760e01b81525f60048201526024015b60405180910390fd5b61063781610a7b565b50565b5f610643610aeb565b805490915060ff600160401b820416159067ffffffffffffffff165f8115801561066a5750825b90505f8267ffffffffffffffff1660011480156106865750303b155b905081158015610694575080155b156106b25760405163f92ee8a960e01b815260040160405180910390fd5b845467ffffffffffffffff1916600117855583156106dc57845460ff60401b1916600160401b1785555b61071e604051806040016040528060048152602001632227a92d60e11b815250604051806040016040528060048152602001632227a92d60e11b815250610b13565b61072733610b25565b61074a336107376012600a611317565b61074590633b9aca00611325565b610b36565b5f869055831561079457845460ff60401b19168555604051600181527fc7f505b2f371ae2175ee4913f4499e1f2633a7b5936321eed1cdaeb6115181d29060200160405180910390a15b505050505050565b6107a98383836001610b6a565b505050565b5f6107b984846105af565b90505f1981101561080c57818110156107fe57604051637dc7a0d960e11b81526001600160a01b03841660048201526024810182905260448101839052606401610625565b61080c84848484035f610b6a565b50505050565b6001600160a01b03831661083b57604051634b637e8f60e11b81525f6004820152602401610625565b6001600160a01b0382166108645760405163ec442f0560e01b81525f6004820152602401610625565b6107a9838383610c4e565b306001600160a01b037f00000000000000000000000000000000000000000000000000000000000000001614806108f557507f00000000000000000000000000000000000000000000000000000000000000006001600160a01b03166108e95f5160206114895f395f51905f52546001600160a01b031690565b6001600160a01b031614155b156105625760405163703e46dd60e11b815260040160405180910390fd5b610637610a20565b816001600160a01b03166352d1902d6040518163ffffffff1660e01b8152600401602060405180830381865afa925050508015610975575060408051601f3d908101601f191682019092526109729181019061133c565b60015b61099d57604051634c9c8ce360e01b81526001600160a01b0383166004820152602401610625565b5f5160206114895f395f51905f5281146109cd57604051632a87526960e21b815260048101829052602401610625565b6107a98383610d87565b306001600160a01b037f000000000000000000000000000000000000000000000000000000000000000016146105625760405163703e46dd60e11b815260040160405180910390fd5b33610a527f9016d09d72d40fdae2fd8ceac6b6234c7706214fd39c1cd1e609a0528c199300546001600160a01b031690565b6001600160a01b0316146105625760405163118cdaa760e01b8152336004820152602401610625565b7f9016d09d72d40fdae2fd8ceac6b6234c7706214fd39c1cd1e609a0528c19930080546001600160a01b031981166001600160a01b03848116918217845560405192169182907f8be0079c531659141344cd1fd0a4f28419497f9722a3daafe3b4186f6b6457e0905f90a3505050565b5f807ff0c57e16840df040f15088dc2f81fe391c3923bec73e23a9662efc9c229c6a006104d4565b610b1b610ddc565b61051a8282610e01565b610b2d610ddc565b61063781610e51565b6001600160a01b038216610b5f5760405163ec442f0560e01b81525f6004820152602401610625565b61051a5f8383610c4e565b5f5160206114695f395f51905f526001600160a01b038516610ba15760405163e602df0560e01b81525f6004820152602401610625565b6001600160a01b038416610bca57604051634a1406b160e11b81525f6004820152602401610625565b6001600160a01b038086165f90815260018301602090815260408083209388168352929052208390558115610c4757836001600160a01b0316856001600160a01b03167f8c5be1e5ebec7d5bd14f71427d1e84f3dd0314c0f7b2291e5b200ac8c7c3b92585604051610c3e91815260200190565b60405180910390a35b5050505050565b5f5160206114695f395f51905f526001600160a01b038416610c885781816002015f828254610c7d9190611221565b90915550610cf89050565b6001600160a01b0384165f9081526020829052604090205482811015610cda5760405163391434e360e21b81526001600160a01b03861660048201526024810182905260448101849052606401610625565b6001600160a01b0385165f9081526020839052604090209083900390555b6001600160a01b038316610d16576002810180548390039055610d34565b6001600160a01b0383165f9081526020829052604090208054830190555b826001600160a01b0316846001600160a01b03167fddf252ad1be2c89b69c2b068fc378daa952ba7f163c4a11628f55a4df523b3ef84604051610d7991815260200190565b60405180910390a350505050565b610d9082610e59565b6040516001600160a01b038316907fbc7cd75a20ee27fd9adebab32041f755214dbc6bffa90cc0225b39da2e5c2d3b905f90a2805115610dd4576107a98282610ebc565b61051a610f2e565b610de4610f4d565b61056257604051631afcd79f60e31b815260040160405180910390fd5b610e09610ddc565b5f5160206114695f395f51905f527f52c63247e1f47db19d5ce0460030c497f067ca4cebf71ba98eeadabe20bace03610e428482611397565b506004810161080c8382611397565b610600610ddc565b806001600160a01b03163b5f03610e8e57604051634c9c8ce360e01b81526001600160a01b0382166004820152602401610625565b5f5160206114895f395f51905f5280546001600160a01b0319166001600160a01b0392909216919091179055565b60605f5f846001600160a01b031684604051610ed89190611452565b5f60405180830381855af49150503d805f8114610f10576040519150601f19603f3d011682016040523d82523d5f602084013e610f15565b606091505b5091509150610f25858383610f66565b95945050505050565b34156105625760405163b398979f60e01b815260040160405180910390fd5b5f610f56610aeb565b54600160401b900460ff16919050565b606082610f7b57610f7682610fc2565b6104f8565b8151158015610f9257506001600160a01b0384163b155b15610fbb57604051639996b31560e01b81526001600160a01b0385166004820152602401610625565b50806104f8565b805115610fd157805160208201fd5b60405163d6bda27560e01b815260040160405180910390fd5b602081525f82518060208401528060208501604085015e5f604082850101526040601f19601f83011684010191505092915050565b80356001600160a01b0381168114611035575f5ffd5b919050565b5f5f6040838503121561104b575f5ffd5b6110548361101f565b946020939093013593505050565b5f5f5f60608486031215611074575f5ffd5b61107d8461101f565b925061108b6020850161101f565b929592945050506040919091013590565b634e487b7160e01b5f52604160045260245ffd5b5f5f604083850312156110c1575f5ffd5b6110ca8361101f565b9150602083013567ffffffffffffffff8111156110e5575f5ffd5b8301601f810185136110f5575f5ffd5b803567ffffffffffffffff81111561110f5761110f61109c565b604051601f8201601f19908116603f0116810167ffffffffffffffff8111828210171561113e5761113e61109c565b604052818152828201602001871015611155575f5ffd5b816020840160208301375f602083830101528093505050509250929050565b5f60208284031215611184575f5ffd5b6104f88261101f565b5f5f6040838503121561119e575f5ffd5b6111a78361101f565b91506111b56020840161101f565b90509250929050565b5f602082840312156111ce575f5ffd5b5035919050565b600181811c908216806111e957607f821691505b60208210810361120757634e487b7160e01b5f52602260045260245ffd5b50919050565b634e487b7160e01b5f52601160045260245ffd5b808201808211156104d4576104d461120d565b6001815b600184111561126f578085048111156112535761125361120d565b600184161561126157908102905b60019390931c928002611238565b935093915050565b5f82611285575060016104d4565b8161129157505f6104d4565b81600181146112a757600281146112b1576112cd565b60019150506104d4565b60ff8411156112c2576112c261120d565b50506001821b6104d4565b5060208310610133831016604e8410600b84101617156112f0575081810a6104d4565b6112fc5f198484611234565b805f190482111561130f5761130f61120d565b029392505050565b5f6104f860ff841683611277565b80820281158282048414176104d4576104d461120d565b5f6020828403121561134c575f5ffd5b5051919050565b601f8211156107a957805f5260205f20601f840160051c810160208510156113785750805b601f840160051c820191505b81811015610c47575f8155600101611384565b815167ffffffffffffffff8111156113b1576113b161109c565b6113c5816113bf84546111d5565b84611353565b6020601f8211600181146113f7575f83156113e05750848201515b5f19600385901b1c1916600184901b178455610c47565b5f84815260208120601f198516915b828110156114265787850151825560209485019460019092019101611406565b508482101561144357868401515f19600387901b60f8161c191681555b50505050600190811b01905550565b5f82518060208501845e5f92019182525091905056fe52c63247e1f47db19d5ce0460030c497f067ca4cebf71ba98eeadabe20bace00360894a13ba1a3210667c828492db98dca3e2076cc3735a920a3ca505d382bbca2646970667358221220719635c5a331b90426b6a316d4189a205a2e215a8cf0af8dac1bb8f9632b25f664736f6c634300081c0033",
  "linkReferences": {},
  "deployedLinkReferences": {},
  "immutableReferences": {
    "1613": [
      {
        "length": 32,
        "start": 2170
      },
      {
        "length": 32,
        "start": 2211
      },
      {
        "length": 32,
        "start": 2530
      }
    ]
  },
  "inputSourceName": "project/contracts/Dorz2.sol",
  "buildInfoId": "solc-0_8_28-75349946a2c77f40f33d9dea628c3852d291d83f"
}