{
  "_format": "hh3-artifact-1",
  "contractName": "V2",
  "sourceName": "contracts/V2.sol",
  "abi": [
    {
      "inputs": [],
      "name": "decrease",
      "outputs": [],
      "stateMutability": "nonpayable",
      "type": "function"
    },
    {
      "inputs": [],
      "name": "increase",
      "outputs": [],
      "stateMutability": "nonpayable",
      "type": "function"
    },
    {
      "inputs": [
        {
          "internalType": "uint256",
          "name": "_num",
          "type": "uint256"
        }
      ],
      "name": "initialValue",
      "outputs": [],
      "stateMutability": "nonpayable",
      "type": "function"
    },
    {
      "inputs": [],
      "name": "number",
      "outputs": [
        {
          "internalType": "uint256",
          "name": "",
          "type": "uint256"
        }
      ],
      "stateMutability": "view",
      "type": "function"
    }
  ],
  "bytecode": "0x6080604052348015600e575f5ffd5b506101298061001c5f395ff3fe6080604052348015600e575f5ffd5b50600436106044575f3560e01c80638381f58a146048578063d732d955146061578063e8927fbc146069578063f8d4ca8814606f575b5f5ffd5b604f5f5481565b60405190815260200160405180910390f35b6067607e565b005b60676094565b6067607a36600460a3565b5f55565b60015f5f828254608d919060cd565b9091555050565b60015f5f828254608d919060e3565b5f6020828403121560b2575f5ffd5b5035919050565b634e487b7160e01b5f52601160045260245ffd5b8181038181111560dd5760dd60b9565b92915050565b8082018082111560dd5760dd60b956fea2646970667358221220528f4c96ac78bb999a807082b722a3beb5ed5c881718c7237e77e02955f080fa64736f6c634300081c0033",
  "linkReferences": {},
  "deployedLinkReferences": {},
  "immutableReferences": {},
  "inputSourceName": "project/contracts/V2.sol",
  "buildInfoId": "solc-0_8_28-d9d179919abdd5622bf7399fc4adb704bd53a867"
}