{
  "_format": "hh3-artifact-1",
  "contractName": "V1",
  "sourceName": "contracts/V1.sol",
  "abi": [
    {
      "inputs": [],
      "name": "increase",
      "outputs": [],
      "stateMutability": "nonpayable",
      "type": "function"
    },
    {
      "inputs": [
        {
          "internalType": "uint256",
          "name": "_num",
          "type": "uint256"
        }
      ],
      "name": "initialValue",
      "outputs": [],
      "stateMutability": "nonpayable",
      "type": "function"
    },
    {
      "inputs": [],
      "name": "number",
      "outputs": [
        {
          "internalType": "uint256",
          "name": "",
          "type": "uint256"
        }
      ],
      "stateMutability": "view",
      "type": "function"
    }
  ],
  "bytecode": "0x6080604052348015600e575f5ffd5b5060f48061001b5f395ff3fe6080604052348015600e575f5ffd5b5060043610603a575f3560e01c80638381f58a14603e578063e8927fbc146057578063f8d4ca8814605f575b5f5ffd5b60455f5481565b60405190815260200160405180910390f35b605d606e565b005b605d606a3660046084565b5f55565b60015f5f828254607d9190609a565b9091555050565b5f602082840312156093575f5ffd5b5035919050565b8082018082111560b857634e487b7160e01b5f52601160045260245ffd5b9291505056fea26469706673582212201651f23586db1c8cd8a3813349c77fb84149fb5e270d08a822bf85c7e516411964736f6c634300081c0033",
  "linkReferences": {},
  "deployedLinkReferences": {},
  "immutableReferences": {},
  "inputSourceName": "project/contracts/V1.sol",
  "buildInfoId": "solc-0_8_28-b1be17d1292b93c65c7ddd75e5402b51a7abb345"
}