{
  "_format": "hh3-artifact-1",
  "contractName": "DORZ",
  "sourceName": "contracts/DORZ.sol",
  "abi": [
    {
      "inputs": [],
      "stateMutability": "nonpayable",
      "type": "constructor"
    },
    {
      "inputs": [
        {
          "internalType": "address",
          "name": "target",
          "type": "address"
        }
      ],
      "name": "AddressEmptyCode",
      "type": "error"
    },
    {
      "inputs": [
        {
          "internalType": "address",
          "name": "implementation",
          "type": "address"
        }
      ],
      "name": "ERC1967InvalidImplementation",
      "type": "error"
    },
    {
      "inputs": [],
      "name": "ERC1967NonPayable",
      "type": "error"
    },
    {
      "inputs": [
        {
          "internalType": "address",
          "name": "spender",
          "type": "address"
        },
        {
          "internalType": "uint256",
          "name": "allowance",
          "type": "uint256"
        },
        {
          "internalType": "uint256",
          "name": "needed",
          "type": "uint256"
        }
      ],
      "name": "ERC20InsufficientAllowance",
      "type": "error"
    },
    {
      "inputs": [
        {
          "internalType": "address",
          "name": "sender",
          "type": "address"
        },
        {
          "internalType": "uint256",
          "name": "balance",
          "type": "uint256"
        },
        {
          "internalType": "uint256",
          "name": "needed",
          "type": "uint256"
        }
      ],
      "name": "ERC20InsufficientBalance",
      "type": "error"
    },
    {
      "inputs": [
        {
          "internalType": "address",
          "name": "approver",
          "type": "address"
        }
      ],
      "name": "ERC20InvalidApprover",
      "type": "error"
    },
    {
      "inputs": [
        {
          "internalType": "address",
          "name": "receiver",
          "type": "address"
        }
      ],
      "name": "ERC20InvalidReceiver",
      "type": "error"
    },
    {
      "inputs": [
        {
          "internalType": "address",
          "name": "sender",
          "type": "address"
        }
      ],
      "name": "ERC20InvalidSender",
      "type": "error"
    },
    {
      "inputs": [
        {
          "internalType": "address",
          "name": "spender",
          "type": "address"
        }
      ],
      "name": "ERC20InvalidSpender",
      "type": "error"
    },
    {
      "inputs": [],
      "name": "FailedCall",
      "type": "error"
    },
    {
      "inputs": [],
      "name": "InvalidInitialization",
      "type": "error"
    },
    {
      "inputs": [],
      "name": "NotInitializing",
      "type": "error"
    },
    {
      "inputs": [
        {
          "internalType": "address",
          "name": "owner",
          "type": "address"
        }
      ],
      "name": "OwnableInvalidOwner",
      "type": "error"
    },
    {
      "inputs": [
        {
          "internalType": "address",
          "name": "account",
          "type": "address"
        }
      ],
      "name": "OwnableUnauthorizedAccount",
      "type": "error"
    },
    {
      "inputs": [],
      "name": "UUPSUnauthorizedCallContext",
      "type": "error"
    },
    {
      "inputs": [
        {
          "internalType": "bytes32",
          "name": "slot",
          "type": "bytes32"
        }
      ],
      "name": "UUPSUnsupportedProxiableUUID",
      "type": "error"
    },
    {
      "anonymous": false,
      "inputs": [
        {
          "indexed": true,
          "internalType": "address",
          "name": "owner",
          "type": "address"
        },
        {
          "indexed": true,
          "internalType": "address",
          "name": "spender",
          "type": "address"
        },
        {
          "indexed": false,
          "internalType": "uint256",
          "name": "value",
          "type": "uint256"
        }
      ],
      "name": "Approval",
      "type": "event"
    },
    {
      "anonymous": false,
      "inputs": [
        {
          "indexed": false,
          "internalType": "uint64",
          "name": "version",
          "type": "uint64"
        }
      ],
      "name": "Initialized",
      "type": "event"
    },
    {
      "anonymous": false,
      "inputs": [
        {
          "indexed": true,
          "internalType": "address",
          "name": "previousOwner",
          "type": "address"
        },
        {
          "indexed": true,
          "internalType": "address",
          "name": "newOwner",
          "type": "address"
        }
      ],
      "name": "OwnershipTransferred",
      "type": "event"
    },
    {
      "anonymous": false,
      "inputs": [
        {
          "indexed": true,
          "internalType": "address",
          "name": "from",
          "type": "address"
        },
        {
          "indexed": true,
          "internalType": "address",
          "name": "to",
          "type": "address"
        },
        {
          "indexed": false,
          "internalType": "uint256",
          "name": "value",
          "type": "uint256"
        }
      ],
      "name": "Transfer",
      "type": "event"
    },
    {
      "anonymous": false,
      "inputs": [
        {
          "indexed": true,
          "internalType": "address",
          "name": "implementation",
          "type": "address"
        }
      ],
      "name": "Upgraded",
      "type": "event"
    },
    {
      "inputs": [],
      "name": "UPGRADE_INTERFACE_VERSION",
      "outputs": [
        {
          "internalType": "string",
          "name": "",
          "type": "string"
        }
      ],
      "stateMutability": "view",
      "type": "function"
    },
    {
      "inputs": [
        {
          "internalType": "address",
          "name": "owner",
          "type": "address"
        },
        {
          "internalType": "address",
          "name": "spender",
          "type": "address"
        }
      ],
      "name": "allowance",
      "outputs": [
        {
          "internalType": "uint256",
          "name": "",
          "type": "uint256"
        }
      ],
      "stateMutability": "view",
      "type": "function"
    },
    {
      "inputs": [
        {
          "internalType": "address",
          "name": "spender",
          "type": "address"
        },
        {
          "internalType": "uint256",
          "name": "value",
          "type": "uint256"
        }
      ],
      "name": "approve",
      "outputs": [
        {
          "internalType": "bool",
          "name": "",
          "type": "bool"
        }
      ],
      "stateMutability": "nonpayable",
      "type": "function"
    },
    {
      "inputs": [
        {
          "internalType": "address",
          "name": "account",
          "type": "address"
        }
      ],
      "name": "balanceOf",
      "outputs": [
        {
          "internalType": "uint256",
          "name": "",
          "type": "uint256"
        }
      ],
      "stateMutability": "view",
      "type": "function"
    },
    {
      "inputs": [],
      "name": "decimals",
      "outputs": [
        {
          "internalType": "uint8",
          "name": "",
          "type": "uint8"
        }
      ],
      "stateMutability": "view",
      "type": "function"
    },
    {
      "inputs": [
        {
          "internalType": "uint256",
          "name": "_num",
          "type": "uint256"
        }
      ],
      "name": "initialize",
      "outputs": [],
      "stateMutability": "nonpayable",
      "type": "function"
    },
    {
      "inputs": [],
      "name": "name",
      "outputs": [
        {
          "internalType": "string",
          "name": "",
          "type": "string"
        }
      ],
      "stateMutability": "view",
      "type": "function"
    },
    {
      "inputs": [],
      "name": "owner",
      "outputs": [
        {
          "internalType": "address",
          "name": "",
          "type": "address"
        }
      ],
      "stateMutability": "view",
      "type": "function"
    },
    {
      "inputs": [],
      "name": "proxiableUUID",
      "outputs": [
        {
          "internalType": "bytes32",
          "name": "",
          "type": "bytes32"
        }
      ],
      "stateMutability": "view",
      "type": "function"
    },
    {
      "inputs": [],
      "name": "renounceOwnership",
      "outputs": [],
      "stateMutability": "nonpayable",
      "type": "function"
    },
    {
      "inputs": [],
      "name": "symbol",
      "outputs": [
        {
          "internalType": "string",
          "name": "",
          "type": "string"
        }
      ],
      "stateMutability": "view",
      "type": "function"
    },
    {
      "inputs": [],
      "name": "totalSupply",
      "outputs": [
        {
          "internalType": "uint256",
          "name": "",
          "type": "uint256"
        }
      ],
      "stateMutability": "view",
      "type": "function"
    },
    {
      "inputs": [
        {
          "internalType": "address",
          "name": "to",
          "type": "address"
        },
        {
          "internalType": "uint256",
          "name": "value",
          "type": "uint256"
        }
      ],
      "name": "transfer",
      "outputs": [
        {
          "internalType": "bool",
          "name": "",
          "type": "bool"
        }
      ],
      "stateMutability": "nonpayable",
      "type": "function"
    },
    {
      "inputs": [
        {
          "internalType": "address",
          "name": "from",
          "type": "address"
        },
        {
          "internalType": "address",
          "name": "to",
          "type": "address"
        },
        {
          "internalType": "uint256",
          "name": "value",
          "type": "uint256"
        }
      ],
      "name": "transferFrom",
      "outputs": [
        {
          "internalType": "bool",
          "name": "",
          "type": "bool"
        }
      ],
      "stateMutability": "nonpayable",
      "type": "function"
    },
    {
      "inputs": [
        {
          "internalType": "address",
          "name": "newOwner",
          "type": "address"
        }
      ],
      "name": "transferOwnership",
      "outputs": [],
      "stateMutability": "nonpayable",
      "type": "function"
    },
    {
      "inputs": [],
      "name": "upgradeIncrement",
      "outputs": [
        {
          "internalType": "uint256",
          "name": "",
          "type": "uint256"
        }
      ],
      "stateMutability": "view",
      "type": "function"
    },
    {
      "inputs": [
        {
          "internalType": "address",
          "name": "newImplementation",
          "type": "address"
        },
        {
          "internalType": "bytes",
          "name": "data",
          "type": "bytes"
        }
      ],
      "name": "upgradeToAndCall",
      "outputs": [],
      "stateMutability": "payable",
      "type": "function"
    },
    {
      "inputs": [],
      "name": "version",
      "outputs": [
        {
          "internalType": "string",
          "name": "",
          "type": "string"
        }
      ],
      "stateMutability": "pure",
      "type": "function"
    }
  ],
  "bytecode": "0x60a060405230608052348015610013575f5ffd5b5061001c610021565b6100d3565b7ff0c57e16840df040f15088dc2f81fe391c3923bec73e23a9662efc9c229c6a00805468010000000000000000900460ff16156100715760405163f92ee8a960e01b815260040160405180910390fd5b80546001600160401b03908116146100d05780546001600160401b0319166001600160401b0390811782556040519081527fc7f505b2f371ae2175ee4913f4499e1f2633a7b5936321eed1cdaeb6115181d29060200160405180910390a15b50565b6080516114626100f95f395f81816107fe01528181610827015261096601526114625ff3fe608060405260043610610105575f3560e01c8063715018a611610092578063ad3cb1cc11610062578063ad3cb1cc146102fc578063cc59de021461032c578063dd62ed3e14610340578063f2fde38b1461035f578063fe4b84df1461037e575f5ffd5b8063715018a61461026f5780638da5cb5b1461028357806395d89b41146102c9578063a9059cbb146102dd575f5ffd5b8063313ce567116100d8578063313ce567146101be5780634f1ef286146101d957806352d1902d146101ee57806354fd4d501461020257806370a082311461022f575f5ffd5b806306fdde0314610109578063095ea7b31461013357806318160ddd1461016257806323b872dd1461019f575b5f5ffd5b348015610114575f5ffd5b5061011d61039d565b60405161012a9190610f6e565b60405180910390f35b34801561013e575f5ffd5b5061015261014d366004610fbe565b61045d565b604051901515815260200161012a565b34801561016d575f5ffd5b507f52c63247e1f47db19d5ce0460030c497f067ca4cebf71ba98eeadabe20bace02545b60405190815260200161012a565b3480156101aa575f5ffd5b506101526101b9366004610fe6565b610476565b3480156101c9575f5ffd5b506040516012815260200161012a565b6101ec6101e7366004611034565b61049b565b005b3480156101f9575f5ffd5b506101916104ba565b34801561020d575f5ffd5b506040805180820190915260058152640312e302e360dc1b602082015261011d565b34801561023a575f5ffd5b506101916102493660046110f8565b6001600160a01b03165f9081525f5160206113ed5f395f51905f52602052604090205490565b34801561027a575f5ffd5b506101ec6104d5565b34801561028e575f5ffd5b507f9016d09d72d40fdae2fd8ceac6b6234c7706214fd39c1cd1e609a0528c199300546040516001600160a01b03909116815260200161012a565b3480156102d4575f5ffd5b5061011d6104e8565b3480156102e8575f5ffd5b506101526102f7366004610fbe565b610526565b348015610307575f5ffd5b5061011d604051806040016040528060058152602001640352e302e360dc1b81525081565b348015610337575f5ffd5b506101915f5481565b34801561034b575f5ffd5b5061019161035a366004611111565b610533565b34801561036a575f5ffd5b506101ec6103793660046110f8565b61057c565b348015610389575f5ffd5b506101ec610398366004611142565b6105be565b7f52c63247e1f47db19d5ce0460030c497f067ca4cebf71ba98eeadabe20bace0380546060915f5160206113ed5f395f51905f52916103db90611159565b80601f016020809104026020016040519081016040528092919081815260200182805461040790611159565b80156104525780601f1061042957610100808354040283529160200191610452565b820191905f5260205f20905b81548152906001019060200180831161043557829003601f168201915b505050505091505090565b5f3361046a818585610720565b60019150505b92915050565b5f33610483858285610732565b61048e858585610796565b60019150505b9392505050565b6104a36107f3565b6104ac82610897565b6104b6828261089f565b5050565b5f6104c361095b565b505f51602061140d5f395f51905f5290565b6104dd6109a4565b6104e65f6109ff565b565b7f52c63247e1f47db19d5ce0460030c497f067ca4cebf71ba98eeadabe20bace0480546060915f5160206113ed5f395f51905f52916103db90611159565b5f3361046a818585610796565b6001600160a01b039182165f9081527f52c63247e1f47db19d5ce0460030c497f067ca4cebf71ba98eeadabe20bace016020908152604080832093909416825291909152205490565b6105846109a4565b6001600160a01b0381166105b257604051631e4fbdf760e01b81525f60048201526024015b60405180910390fd5b6105bb816109ff565b50565b5f6105c7610a6f565b805490915060ff600160401b820416159067ffffffffffffffff165f811580156105ee5750825b90505f8267ffffffffffffffff16600114801561060a5750303b155b905081158015610618575080155b156106365760405163f92ee8a960e01b815260040160405180910390fd5b845467ffffffffffffffff19166001178555831561066057845460ff60401b1916600160401b1785555b6106a2604051806040016040528060048152602001632227a92d60e11b815250604051806040016040528060048152602001632227a92d60e11b815250610a97565b6106ab33610aa9565b6106ce336106bb6012600a611288565b6106c990633b9aca00611296565b610aba565b5f869055831561071857845460ff60401b19168555604051600181527fc7f505b2f371ae2175ee4913f4499e1f2633a7b5936321eed1cdaeb6115181d29060200160405180910390a15b505050505050565b61072d8383836001610aee565b505050565b5f61073d8484610533565b90505f19811015610790578181101561078257604051637dc7a0d960e11b81526001600160a01b038416600482015260248101829052604481018390526064016105a9565b61079084848484035f610aee565b50505050565b6001600160a01b0383166107bf57604051634b637e8f60e11b81525f60048201526024016105a9565b6001600160a01b0382166107e85760405163ec442f0560e01b81525f60048201526024016105a9565b61072d838383610bd2565b306001600160a01b037f000000000000000000000000000000000000000000000000000000000000000016148061087957507f00000000000000000000000000000000000000000000000000000000000000006001600160a01b031661086d5f51602061140d5f395f51905f52546001600160a01b031690565b6001600160a01b031614155b156104e65760405163703e46dd60e11b815260040160405180910390fd5b6105bb6109a4565b816001600160a01b03166352d1902d6040518163ffffffff1660e01b8152600401602060405180830381865afa9250505080156108f9575060408051601f3d908101601f191682019092526108f6918101906112ad565b60015b61092157604051634c9c8ce360e01b81526001600160a01b03831660048201526024016105a9565b5f51602061140d5f395f51905f52811461095157604051632a87526960e21b8152600481018290526024016105a9565b61072d8383610d0b565b306001600160a01b037f000000000000000000000000000000000000000000000000000000000000000016146104e65760405163703e46dd60e11b815260040160405180910390fd5b336109d67f9016d09d72d40fdae2fd8ceac6b6234c7706214fd39c1cd1e609a0528c199300546001600160a01b031690565b6001600160a01b0316146104e65760405163118cdaa760e01b81523360048201526024016105a9565b7f9016d09d72d40fdae2fd8ceac6b6234c7706214fd39c1cd1e609a0528c19930080546001600160a01b031981166001600160a01b03848116918217845560405192169182907f8be0079c531659141344cd1fd0a4f28419497f9722a3daafe3b4186f6b6457e0905f90a3505050565b5f807ff0c57e16840df040f15088dc2f81fe391c3923bec73e23a9662efc9c229c6a00610470565b610a9f610d60565b6104b68282610d85565b610ab1610d60565b6105bb81610dd5565b6001600160a01b038216610ae35760405163ec442f0560e01b81525f60048201526024016105a9565b6104b65f8383610bd2565b5f5160206113ed5f395f51905f526001600160a01b038516610b255760405163e602df0560e01b81525f60048201526024016105a9565b6001600160a01b038416610b4e57604051634a1406b160e11b81525f60048201526024016105a9565b6001600160a01b038086165f90815260018301602090815260408083209388168352929052208390558115610bcb57836001600160a01b0316856001600160a01b03167f8c5be1e5ebec7d5bd14f71427d1e84f3dd0314c0f7b2291e5b200ac8c7c3b92585604051610bc291815260200190565b60405180910390a35b5050505050565b5f5160206113ed5f395f51905f526001600160a01b038416610c0c5781816002015f828254610c0191906112c4565b90915550610c7c9050565b6001600160a01b0384165f9081526020829052604090205482811015610c5e5760405163391434e360e21b81526001600160a01b038616600482015260248101829052604481018490526064016105a9565b6001600160a01b0385165f9081526020839052604090209083900390555b6001600160a01b038316610c9a576002810180548390039055610cb8565b6001600160a01b0383165f9081526020829052604090208054830190555b826001600160a01b0316846001600160a01b03167fddf252ad1be2c89b69c2b068fc378daa952ba7f163c4a11628f55a4df523b3ef84604051610cfd91815260200190565b60405180910390a350505050565b610d1482610ddd565b6040516001600160a01b038316907fbc7cd75a20ee27fd9adebab32041f755214dbc6bffa90cc0225b39da2e5c2d3b905f90a2805115610d585761072d8282610e40565b6104b6610eb2565b610d68610ed1565b6104e657604051631afcd79f60e31b815260040160405180910390fd5b610d8d610d60565b5f5160206113ed5f395f51905f527f52c63247e1f47db19d5ce0460030c497f067ca4cebf71ba98eeadabe20bace03610dc6848261131b565b5060048101610790838261131b565b610584610d60565b806001600160a01b03163b5f03610e1257604051634c9c8ce360e01b81526001600160a01b03821660048201526024016105a9565b5f51602061140d5f395f51905f5280546001600160a01b0319166001600160a01b0392909216919091179055565b60605f5f846001600160a01b031684604051610e5c91906113d6565b5f60405180830381855af49150503d805f8114610e94576040519150601f19603f3d011682016040523d82523d5f602084013e610e99565b606091505b5091509150610ea9858383610eea565b95945050505050565b34156104e65760405163b398979f60e01b815260040160405180910390fd5b5f610eda610a6f565b54600160401b900460ff16919050565b606082610eff57610efa82610f46565b610494565b8151158015610f1657506001600160a01b0384163b155b15610f3f57604051639996b31560e01b81526001600160a01b03851660048201526024016105a9565b5080610494565b805115610f5557805160208201fd5b60405163d6bda27560e01b815260040160405180910390fd5b602081525f82518060208401528060208501604085015e5f604082850101526040601f19601f83011684010191505092915050565b80356001600160a01b0381168114610fb9575f5ffd5b919050565b5f5f60408385031215610fcf575f5ffd5b610fd883610fa3565b946020939093013593505050565b5f5f5f60608486031215610ff8575f5ffd5b61100184610fa3565b925061100f60208501610fa3565b929592945050506040919091013590565b634e487b7160e01b5f52604160045260245ffd5b5f5f60408385031215611045575f5ffd5b61104e83610fa3565b9150602083013567ffffffffffffffff811115611069575f5ffd5b8301601f81018513611079575f5ffd5b803567ffffffffffffffff81111561109357611093611020565b604051601f8201601f19908116603f0116810167ffffffffffffffff811182821017156110c2576110c2611020565b6040528181528282016020018710156110d9575f5ffd5b816020840160208301375f602083830101528093505050509250929050565b5f60208284031215611108575f5ffd5b61049482610fa3565b5f5f60408385031215611122575f5ffd5b61112b83610fa3565b915061113960208401610fa3565b90509250929050565b5f60208284031215611152575f5ffd5b5035919050565b600181811c9082168061116d57607f821691505b60208210810361118b57634e487b7160e01b5f52602260045260245ffd5b50919050565b634e487b7160e01b5f52601160045260245ffd5b6001815b60018411156111e0578085048111156111c4576111c4611191565b60018416156111d257908102905b60019390931c9280026111a9565b935093915050565b5f826111f657506001610470565b8161120257505f610470565b816001811461121857600281146112225761123e565b6001915050610470565b60ff84111561123357611233611191565b50506001821b610470565b5060208310610133831016604e8410600b8410161715611261575081810a610470565b61126d5f1984846111a5565b805f190482111561128057611280611191565b029392505050565b5f61049460ff8416836111e8565b808202811582820484141761047057610470611191565b5f602082840312156112bd575f5ffd5b5051919050565b8082018082111561047057610470611191565b601f82111561072d57805f5260205f20601f840160051c810160208510156112fc5750805b601f840160051c820191505b81811015610bcb575f8155600101611308565b815167ffffffffffffffff81111561133557611335611020565b611349816113438454611159565b846112d7565b6020601f82116001811461137b575f83156113645750848201515b5f19600385901b1c1916600184901b178455610bcb565b5f84815260208120601f198516915b828110156113aa578785015182556020948501946001909201910161138a565b50848210156113c757868401515f19600387901b60f8161c191681555b50505050600190811b01905550565b5f82518060208501845e5f92019182525091905056fe52c63247e1f47db19d5ce0460030c497f067ca4cebf71ba98eeadabe20bace00360894a13ba1a3210667c828492db98dca3e2076cc3735a920a3ca505d382bbca264697066735822122066a3c398d5fdab100621407d3b1692c2a9d25eaab9c0eec39e490a635e8ea25164736f6c634300081c0033",
  "linkReferences": {},
  "deployedLinkReferences": {},
  "immutableReferences": {
    "1613": [
      {
        "length": 32,
        "start": 2046
      },
      {
        "length": 32,
        "start": 2087
      },
      {
        "length": 32,
        "start": 2406
      }
    ]
  },
  "inputSourceName": "project/contracts/DORZ.sol",
  "buildInfoId": "solc-0_8_28-46b28dbcc8d23b095df2faf447133c6cc2f27386"
}