{
  "_format": "hh3-artifact-1",
  "contractName": "Vesting",
  "sourceName": "contracts/Vesting.sol",
  "abi": [
    {
      "inputs": [],
      "stateMutability": "nonpayable",
      "type": "constructor"
    },
    {
      "inputs": [
        {
          "internalType": "address",
          "name": "target",
          "type": "address"
        }
      ],
      "name": "AddressEmptyCode",
      "type": "error"
    },
    {
      "inputs": [
        {
          "internalType": "address",
          "name": "implementation",
          "type": "address"
        }
      ],
      "name": "ERC1967InvalidImplementation",
      "type": "error"
    },
    {
      "inputs": [],
      "name": "ERC1967NonPayable",
      "type": "error"
    },
    {
      "inputs": [],
      "name": "FailedCall",
      "type": "error"
    },
    {
      "inputs": [],
      "name": "InvalidInitialization",
      "type": "error"
    },
    {
      "inputs": [],
      "name": "NotInitializing",
      "type": "error"
    },
    {
      "inputs": [
        {
          "internalType": "address",
          "name": "owner",
          "type": "address"
        }
      ],
      "name": "OwnableInvalidOwner",
      "type": "error"
    },
    {
      "inputs": [
        {
          "internalType": "address",
          "name": "account",
          "type": "address"
        }
      ],
      "name": "OwnableUnauthorizedAccount",
      "type": "error"
    },
    {
      "inputs": [],
      "name": "UUPSUnauthorizedCallContext",
      "type": "error"
    },
    {
      "inputs": [
        {
          "internalType": "bytes32",
          "name": "slot",
          "type": "bytes32"
        }
      ],
      "name": "UUPSUnsupportedProxiableUUID",
      "type": "error"
    },
    {
      "anonymous": false,
      "inputs": [
        {
          "indexed": false,
          "internalType": "address",
          "name": "sender",
          "type": "address"
        },
        {
          "indexed": false,
          "internalType": "uint256",
          "name": "coinQty",
          "type": "uint256"
        },
        {
          "indexed": false,
          "internalType": "int256",
          "name": "amountOfUSD",
          "type": "int256"
        },
        {
          "indexed": false,
          "internalType": "int256",
          "name": "amountOfAPR",
          "type": "int256"
        }
      ],
      "name": "ClaimVest",
      "type": "event"
    },
    {
      "anonymous": false,
      "inputs": [
        {
          "indexed": false,
          "internalType": "address",
          "name": "buyer",
          "type": "address"
        },
        {
          "indexed": false,
          "internalType": "uint256",
          "name": "amountOfETH",
          "type": "uint256"
        },
        {
          "indexed": false,
          "internalType": "int256",
          "name": "amountOfUSD",
          "type": "int256"
        },
        {
          "indexed": false,
          "internalType": "int256",
          "name": "amountOfAPR",
          "type": "int256"
        },
        {
          "indexed": false,
          "internalType": "uint256",
          "name": "lockTime",
          "type": "uint256"
        }
      ],
      "name": "CreateVest",
      "type": "event"
    },
    {
      "anonymous": false,
      "inputs": [
        {
          "indexed": false,
          "internalType": "uint64",
          "name": "version",
          "type": "uint64"
        }
      ],
      "name": "Initialized",
      "type": "event"
    },
    {
      "anonymous": false,
      "inputs": [
        {
          "indexed": true,
          "internalType": "address",
          "name": "previousOwner",
          "type": "address"
        },
        {
          "indexed": true,
          "internalType": "address",
          "name": "newOwner",
          "type": "address"
        }
      ],
      "name": "OwnershipTransferred",
      "type": "event"
    },
    {
      "anonymous": false,
      "inputs": [
        {
          "indexed": true,
          "internalType": "address",
          "name": "implementation",
          "type": "address"
        }
      ],
      "name": "Upgraded",
      "type": "event"
    },
    {
      "inputs": [],
      "name": "APR_RATE",
      "outputs": [
        {
          "internalType": "int256",
          "name": "",
          "type": "int256"
        }
      ],
      "stateMutability": "view",
      "type": "function"
    },
    {
      "inputs": [],
      "name": "UPGRADE_INTERFACE_VERSION",
      "outputs": [
        {
          "internalType": "string",
          "name": "",
          "type": "string"
        }
      ],
      "stateMutability": "view",
      "type": "function"
    },
    {
      "inputs": [
        {
          "internalType": "uint256",
          "name": "",
          "type": "uint256"
        }
      ],
      "name": "VestingData",
      "outputs": [
        {
          "internalType": "int256",
          "name": "amount",
          "type": "int256"
        },
        {
          "internalType": "int256",
          "name": "aprAmount",
          "type": "int256"
        },
        {
          "internalType": "uint256",
          "name": "lockUpTime",
          "type": "uint256"
        },
        {
          "internalType": "uint256",
          "name": "coinClaimed",
          "type": "uint256"
        },
        {
          "internalType": "uint256",
          "name": "claimTime",
          "type": "uint256"
        },
        {
          "internalType": "bool",
          "name": "claimStatus",
          "type": "bool"
        }
      ],
      "stateMutability": "view",
      "type": "function"
    },
    {
      "inputs": [
        {
          "internalType": "address",
          "name": "",
          "type": "address"
        },
        {
          "internalType": "uint256",
          "name": "",
          "type": "uint256"
        }
      ],
      "name": "Vests",
      "outputs": [
        {
          "internalType": "address",
          "name": "userAddress",
          "type": "address"
        },
        {
          "internalType": "uint256",
          "name": "order",
          "type": "uint256"
        },
        {
          "internalType": "uint256",
          "name": "dataID",
          "type": "uint256"
        },
        {
          "internalType": "bool",
          "name": "isInitialized",
          "type": "bool"
        }
      ],
      "stateMutability": "view",
      "type": "function"
    },
    {
      "inputs": [
        {
          "internalType": "uint256",
          "name": "orderNumber",
          "type": "uint256"
        },
        {
          "internalType": "int256",
          "name": "amount",
          "type": "int256"
        },
        {
          "internalType": "int256",
          "name": "apr",
          "type": "int256"
        },
        {
          "internalType": "uint256",
          "name": "lockUpTime",
          "type": "uint256"
        },
        {
          "internalType": "uint256",
          "name": "claimTime",
          "type": "uint256"
        },
        {
          "internalType": "uint256",
          "name": "coinClaimed",
          "type": "uint256"
        }
      ],
      "name": "buildVest",
      "outputs": [],
      "stateMutability": "payable",
      "type": "function"
    },
    {
      "inputs": [
        {
          "internalType": "uint256",
          "name": "order",
          "type": "uint256"
        }
      ],
      "name": "checkVestOrderExist",
      "outputs": [
        {
          "internalType": "bool",
          "name": "",
          "type": "bool"
        }
      ],
      "stateMutability": "view",
      "type": "function"
    },
    {
      "inputs": [
        {
          "internalType": "uint256",
          "name": "orderNumber",
          "type": "uint256"
        }
      ],
      "name": "claimVest",
      "outputs": [
        {
          "internalType": "uint256",
          "name": "",
          "type": "uint256"
        }
      ],
      "stateMutability": "payable",
      "type": "function"
    },
    {
      "inputs": [
        {
          "internalType": "uint256",
          "name": "orderNumber",
          "type": "uint256"
        }
      ],
      "name": "createVest",
      "outputs": [
        {
          "internalType": "int256",
          "name": "",
          "type": "int256"
        },
        {
          "internalType": "int256",
          "name": "",
          "type": "int256"
        },
        {
          "internalType": "uint256",
          "name": "",
          "type": "uint256"
        }
      ],
      "stateMutability": "payable",
      "type": "function"
    },
    {
      "inputs": [],
      "name": "dataIncrement",
      "outputs": [
        {
          "internalType": "uint256",
          "name": "",
          "type": "uint256"
        }
      ],
      "stateMutability": "view",
      "type": "function"
    },
    {
      "inputs": [
        {
          "internalType": "int256",
          "name": "usdQty",
          "type": "int256"
        }
      ],
      "name": "getETHAmount",
      "outputs": [
        {
          "internalType": "int256",
          "name": "",
          "type": "int256"
        },
        {
          "internalType": "int256",
          "name": "",
          "type": "int256"
        }
      ],
      "stateMutability": "view",
      "type": "function"
    },
    {
      "inputs": [],
      "name": "getPriceMyCoinperUSD",
      "outputs": [
        {
          "internalType": "int256",
          "name": "",
          "type": "int256"
        }
      ],
      "stateMutability": "view",
      "type": "function"
    },
    {
      "inputs": [],
      "name": "getPriceUSDperETH",
      "outputs": [
        {
          "internalType": "int256",
          "name": "",
          "type": "int256"
        }
      ],
      "stateMutability": "view",
      "type": "function"
    },
    {
      "inputs": [
        {
          "internalType": "int256",
          "name": "ethQty",
          "type": "int256"
        }
      ],
      "name": "getUSDAmount",
      "outputs": [
        {
          "internalType": "int256",
          "name": "",
          "type": "int256"
        },
        {
          "internalType": "int256",
          "name": "",
          "type": "int256"
        }
      ],
      "stateMutability": "view",
      "type": "function"
    },
    {
      "inputs": [
        {
          "internalType": "uint256",
          "name": "orderNumber",
          "type": "uint256"
        }
      ],
      "name": "getVest",
      "outputs": [
        {
          "internalType": "int256",
          "name": "",
          "type": "int256"
        },
        {
          "internalType": "int256",
          "name": "",
          "type": "int256"
        },
        {
          "internalType": "uint256",
          "name": "",
          "type": "uint256"
        },
        {
          "internalType": "uint256",
          "name": "",
          "type": "uint256"
        },
        {
          "internalType": "uint256",
          "name": "",
          "type": "uint256"
        },
        {
          "internalType": "bool",
          "name": "",
          "type": "bool"
        }
      ],
      "stateMutability": "view",
      "type": "function"
    },
    {
      "inputs": [
        {
          "internalType": "uint256",
          "name": "orderNumber",
          "type": "uint256"
        }
      ],
      "name": "getVestDataID",
      "outputs": [
        {
          "internalType": "bool",
          "name": "",
          "type": "bool"
        },
        {
          "internalType": "uint256",
          "name": "",
          "type": "uint256"
        }
      ],
      "stateMutability": "view",
      "type": "function"
    },
    {
      "inputs": [
        {
          "internalType": "address",
          "name": "dorzProxy",
          "type": "address"
        },
        {
          "internalType": "address",
          "name": "EthtoUsd",
          "type": "address"
        }
      ],
      "name": "initialize",
      "outputs": [],
      "stateMutability": "nonpayable",
      "type": "function"
    },
    {
      "inputs": [],
      "name": "myCoinUsdPrice",
      "outputs": [
        {
          "internalType": "int256",
          "name": "",
          "type": "int256"
        }
      ],
      "stateMutability": "view",
      "type": "function"
    },
    {
      "inputs": [],
      "name": "myToken",
      "outputs": [
        {
          "internalType": "contract Dorz",
          "name": "",
          "type": "address"
        }
      ],
      "stateMutability": "view",
      "type": "function"
    },
    {
      "inputs": [],
      "name": "owner",
      "outputs": [
        {
          "internalType": "address",
          "name": "",
          "type": "address"
        }
      ],
      "stateMutability": "view",
      "type": "function"
    },
    {
      "inputs": [],
      "name": "proxiableUUID",
      "outputs": [
        {
          "internalType": "bytes32",
          "name": "",
          "type": "bytes32"
        }
      ],
      "stateMutability": "view",
      "type": "function"
    },
    {
      "inputs": [],
      "name": "renounceOwnership",
      "outputs": [],
      "stateMutability": "nonpayable",
      "type": "function"
    },
    {
      "inputs": [
        {
          "internalType": "address",
          "name": "newOwner",
          "type": "address"
        }
      ],
      "name": "transferOwnership",
      "outputs": [],
      "stateMutability": "nonpayable",
      "type": "function"
    },
    {
      "inputs": [
        {
          "internalType": "address",
          "name": "newImplementation",
          "type": "address"
        },
        {
          "internalType": "bytes",
          "name": "data",
          "type": "bytes"
        }
      ],
      "name": "upgradeToAndCall",
      "outputs": [],
      "stateMutability": "payable",
      "type": "function"
    },
    {
      "inputs": [],
      "name": "usdEthPrice",
      "outputs": [
        {
          "internalType": "int256",
          "name": "",
          "type": "int256"
        }
      ],
      "stateMutability": "view",
      "type": "function"
    },
    {
      "inputs": [],
      "name": "vdETHBalance",
      "outputs": [
        {
          "internalType": "uint256",
          "name": "tokenAmount",
          "type": "uint256"
        }
      ],
      "stateMutability": "view",
      "type": "function"
    },
    {
      "inputs": [],
      "name": "withdraw",
      "outputs": [],
      "stateMutability": "nonpayable",
      "type": "function"
    },
    {
      "stateMutability": "payable",
      "type": "receive"
    }
  ],
  "bytecode": "0x60a060405230608052348015610013575f5ffd5b5061001c610021565b6100d3565b7ff0c57e16840df040f15088dc2f81fe391c3923bec73e23a9662efc9c229c6a00805468010000000000000000900460ff16156100715760405163f92ee8a960e01b815260040160405180910390fd5b80546001600160401b03908116146100d05780546001600160401b0319166001600160401b0390811782556040519081527fc7f505b2f371ae2175ee4913f4499e1f2633a7b5936321eed1cdaeb6115181d29060200160405180910390a15b50565b60805161190e6100f95f395f81816111360152818161115f01526112a3015261190e5ff3fe60806040526004361061017e575f3560e01c80638da5cb5b116100cd578063ad3cb1cc11610087578063cc3fe4ba11610062578063cc3fe4ba1461052c578063d83cb40114610560578063e2ce35571461057f578063f2fde38b14610593575f5ffd5b8063ad3cb1cc146104bd578063b8fcf937146104fa578063c7bfeac214610518575f5ffd5b80638da5cb5b146103615780638dfd3d15146103b157806391722351146104355780639c209dc414610449578063a3eebb4d1461045e578063a6440cc714610471575f5ffd5b8063485cc9551161013857806352d1902d1161011357806352d1902d14610307578063686c7f7e1461031b5780636ab8eab41461032e578063715018a61461034d575f5ffd5b8063485cc9551461025557806349673d98146102745780634f1ef286146102f4575f5ffd5b806308b4bd6314610189578063098c27dc146101bc5780631e9be6a1146101df578063255c29ed146101f45780632d6478421461022a5780633ccfd60b1461023f575f5ffd5b3661018557005b5f5ffd5b61019c610197366004611567565b6105b2565b604080519384526020840192909252908201526060015b60405180910390f35b3480156101c7575f5ffd5b506101d160035481565b6040519081526020016101b3565b3480156101ea575f5ffd5b506101d160025481565b3480156101ff575f5ffd5b5061021361020e366004611567565b610719565b6040805192151583526020830191909152016101b3565b348015610235575f5ffd5b506101d160045481565b34801561024a575f5ffd5b50610253610781565b005b348015610260575f5ffd5b5061025361026f366004611599565b610865565b34801561027f575f5ffd5b506102c561028e366004611567565b60076020525f9081526040902080546001820154600283015460038401546004850154600590950154939492939192909160ff1686565b6040805196875260208701959095529385019290925260608401526080830152151560a082015260c0016101b3565b6102536103023660046115de565b6109a6565b348015610312575f5ffd5b506101d16109c1565b6102536103293660046116a2565b6109dc565b348015610339575f5ffd5b506102c5610348366004611567565b610b4d565b348015610358575f5ffd5b50610253610bec565b34801561036c575f5ffd5b507f9016d09d72d40fdae2fd8ceac6b6234c7706214fd39c1cd1e609a0528c199300546001600160a01b03165b6040516001600160a01b0390911681526020016101b3565b3480156103bc575f5ffd5b506104096103cb3660046116e1565b600660209081525f928352604080842090915290825290208054600182015460028301546003909301546001600160a01b0390921692909160ff1684565b604080516001600160a01b039095168552602085019390935291830152151560608201526080016101b3565b348015610440575f5ffd5b506003546101d1565b348015610454575f5ffd5b506101d160055481565b6101d161046c366004611567565b610bff565b34801561047c575f5ffd5b506104ad61048b366004611567565b335f908152600660209081526040808320938352929052206003015460ff1690565b60405190151581526020016101b3565b3480156104c8575f5ffd5b506104ed604051806040016040528060058152602001640352e302e360dc1b81525081565b6040516101b39190611709565b348015610505575f5ffd5b505f54610399906001600160a01b031681565b348015610523575f5ffd5b506101d1610f63565b348015610537575f5ffd5b5061054b610546366004611567565b610f71565b604080519283526020830191909152016101b3565b34801561056b575f5ffd5b5061054b61057a366004611567565b610ffd565b34801561058a575f5ffd5b506002546101d1565b34801561059e575f5ffd5b506102536105ad36600461173e565b611058565b5f5f5f5f34116105dd5760405162461bcd60e51b81526004016105d490611757565b60405180910390fd5b5f84116106235760405162461bcd60e51b8152602060048201526014602482015273151a1a5cc81251081a5cc81b9bdd081d985b1a5960621b60448201526064016105d4565b335f90815260066020908152604080832087845290915290206003015460ff1680156106895760405162461bcd60e51b8152602060048201526015602482015274151a1a5cc81251081a185cc81899595b881d5cd959605a1b60448201526064016105d4565b345f8061069583610f71565b90925090505f6106a9426301e133806117b3565b90505f5f6106bb8b86868686866109dc565b6040805133815234602082015290810186905260608101859052608081018490527f4726b94833d3f479e9d83d0d29477561a80f7995e6aa6bef71ab87168060b0319060a00160405180910390a15092999198509650945050505050565b5f5f5f5f61074385335f908152600660209081526040808320938352929052206003015460ff1690565b90508015610776575050335f90815260066020908152604080832095835294905292909220600201546001939092509050565b505f94909350915050565b610789611095565b47806107d75760405162461bcd60e51b815260206004820152601d60248201527f596f75206861766520696e73756666696369656e742062616c616e636500000060448201526064016105d4565b6040515f90339047908381818185875af1925050503d805f8114610816576040519150601f19603f3d011682016040523d82523d5f602084013e61081b565b606091505b50509050806108615760405162461bcd60e51b8152602060048201526012602482015271556e61626c6520746f20776974686472617760701b60448201526064016105d4565b5050565b5f61086e6110f0565b805490915060ff600160401b820416159067ffffffffffffffff165f811580156108955750825b90505f8267ffffffffffffffff1660011480156108b15750303b155b9050811580156108bf575080155b156108dd5760405163f92ee8a960e01b815260040160405180910390fd5b845467ffffffffffffffff19166001178555831561090757845460ff60401b1916600160401b1785555b6109103361111a565b64174876e8006002556402540be4006003556107d06004555f6005819055600180546001600160a01b03808a166001600160a01b0319928316179092558254918a169116179055831561099d57845460ff60401b19168555604051600181527fc7f505b2f371ae2175ee4913f4499e1f2633a7b5936321eed1cdaeb6115181d29060200160405180910390a15b50505050505050565b6109ae61112b565b6109b7826111cf565b61086182826111d7565b5f6109ca611298565b505f5160206118b95f395f51905f5290565b60058054905f6109eb836117c6565b91905055506040518060800160405280336001600160a01b0316815260200187815260200160055481526020016001151581525060065f336001600160a01b03166001600160a01b031681526020019081526020015f205f8881526020019081526020015f205f820151815f015f6101000a8154816001600160a01b0302191690836001600160a01b0316021790555060208201518160010155604082015181600201556060820151816003015f6101000a81548160ff0219169083151502179055509050506040518060c001604052808681526020018581526020018481526020018281526020018381526020015f151581525060075f60055481526020019081526020015f205f820151815f01556020820151816001015560408201518160020155606082015181600301556080820151816004015560a0820151816005015f6101000a81548160ff021916908315150217905550905050505050505050565b5f5f5f5f5f5f5f5f610b5e89610719565b9150915081610bab5760405162461bcd60e51b8152602060048201526019602482015278165bdd5c881858d8dbdd5b9d081a5cc81b9bdd081d985b1a59603a1b60448201526064016105d4565b5f90815260076020526040902080546001820154600283015460038401546004850154600590950154939d929c50909a50985091965060ff16945092505050565b610bf4611095565b610bfd5f6112e1565b565b5f5f5f610c0b84610719565b9150915081610c585760405162461bcd60e51b8152602060048201526019602482015278165bdd5c881858d8dbdd5b9d081a5cc81b9bdd081d985b1a59603a1b60448201526064016105d4565b5f8181526007602052604090206005015460ff1615610cb25760405162461bcd60e51b8152602060048201526016602482015275576974686472617720686164206265656e206d61646560501b60448201526064016105d4565b5f81815260076020526040902060020154421015610d125760405162461bcd60e51b815260206004820152601e60248201527f5769746864726177616c20706572696f64206973206e6f742076616c6964000060448201526064016105d4565b5f81815260076020526040812060018101549054610d3091906117de565b90505f610d3c60035490565b90505f6305f5e100610d4e8385611805565b610d589190611834565b5f80546040516370a0823160e01b815230600482015292935083926001600160a01b03909116906370a0823190602401602060405180830381865afa158015610da3573d5f5f3e3d5ffd5b505050506040513d601f19601f82011682018060405250810190610dc7919061186c565b905081811015610e0f5760405162461bcd60e51b8152602060048201526013602482015272496e73756666696369656e7420737570706c7960681b60448201526064016105d4565b5f805460405163a9059cbb60e01b8152336004820152602481018590526001600160a01b039091169063a9059cbb906044016020604051808303815f875af1158015610e5d573d5f5f3e3d5ffd5b505050506040513d601f19601f82011682018060405250810190610e819190611883565b905080610edc5760405162461bcd60e51b8152602060048201526024808201527f53797374656d206572726f722c20706c656173652074727920616761696e206c60448201526330ba32b960e11b60648201526084016105d4565b5f878152600760209081526040918290206003810186905542600482015560058101805460ff19166001908117909155815491015483513381529283018790529282015260608101919091527f359727b825bd62f8daf7f382d9f26394cdb4527fc4b7334b7f4964dbdd116c499060800160405180910390a1509098975050505050505050565b5f610f6c611095565b504790565b5f5f5f8313610f925760405162461bcd60e51b81526004016105d490611757565b5f610f9c60025490565b90505f6305f5e100610fae8684611805565b610fb89190611834565b90505f6305f5e1006127106004548886610fd29190611805565b610fdc9190611805565b610fe69190611834565b610ff09190611834565b9196919550909350505050565b5f5f5f831361101e5760405162461bcd60e51b81526004016105d490611757565b5f61102860025490565b90505f8161103a866305f5e100611805565b6110449190611834565b90505f61271060045487610fe69190611805565b611060611095565b6001600160a01b03811661108957604051631e4fbdf760e01b81525f60048201526024016105d4565b611092816112e1565b50565b336110c77f9016d09d72d40fdae2fd8ceac6b6234c7706214fd39c1cd1e609a0528c199300546001600160a01b031690565b6001600160a01b031614610bfd5760405163118cdaa760e01b81523360048201526024016105d4565b5f807ff0c57e16840df040f15088dc2f81fe391c3923bec73e23a9662efc9c229c6a005b92915050565b611122611351565b61109281611376565b306001600160a01b037f00000000000000000000000000000000000000000000000000000000000000001614806111b157507f00000000000000000000000000000000000000000000000000000000000000006001600160a01b03166111a55f5160206118b95f395f51905f52546001600160a01b031690565b6001600160a01b031614155b15610bfd5760405163703e46dd60e11b815260040160405180910390fd5b611092611095565b816001600160a01b03166352d1902d6040518163ffffffff1660e01b8152600401602060405180830381865afa925050508015611231575060408051601f3d908101601f1916820190925261122e9181019061186c565b60015b61125957604051634c9c8ce360e01b81526001600160a01b03831660048201526024016105d4565b5f5160206118b95f395f51905f52811461128957604051632a87526960e21b8152600481018290526024016105d4565b611293838361137e565b505050565b306001600160a01b037f00000000000000000000000000000000000000000000000000000000000000001614610bfd5760405163703e46dd60e11b815260040160405180910390fd5b7f9016d09d72d40fdae2fd8ceac6b6234c7706214fd39c1cd1e609a0528c19930080546001600160a01b031981166001600160a01b03848116918217845560405192169182907f8be0079c531659141344cd1fd0a4f28419497f9722a3daafe3b4186f6b6457e0905f90a3505050565b6113596113d3565b610bfd57604051631afcd79f60e31b815260040160405180910390fd5b611060611351565b611387826113ec565b6040516001600160a01b038316907fbc7cd75a20ee27fd9adebab32041f755214dbc6bffa90cc0225b39da2e5c2d3b905f90a28051156113cb57611293828261144f565b6108616114c1565b5f6113dc6110f0565b54600160401b900460ff16919050565b806001600160a01b03163b5f0361142157604051634c9c8ce360e01b81526001600160a01b03821660048201526024016105d4565b5f5160206118b95f395f51905f5280546001600160a01b0319166001600160a01b0392909216919091179055565b60605f5f846001600160a01b03168460405161146b91906118a2565b5f60405180830381855af49150503d805f81146114a3576040519150601f19603f3d011682016040523d82523d5f602084013e6114a8565b606091505b50915091506114b88583836114e0565b95945050505050565b3415610bfd5760405163b398979f60e01b815260040160405180910390fd5b6060826114f5576114f08261153f565b611538565b815115801561150c57506001600160a01b0384163b155b1561153557604051639996b31560e01b81526001600160a01b03851660048201526024016105d4565b50805b9392505050565b80511561154e57805160208201fd5b60405163d6bda27560e01b815260040160405180910390fd5b5f60208284031215611577575f5ffd5b5035919050565b80356001600160a01b0381168114611594575f5ffd5b919050565b5f5f604083850312156115aa575f5ffd5b6115b38361157e565b91506115c16020840161157e565b90509250929050565b634e487b7160e01b5f52604160045260245ffd5b5f5f604083850312156115ef575f5ffd5b6115f88361157e565b9150602083013567ffffffffffffffff811115611613575f5ffd5b8301601f81018513611623575f5ffd5b803567ffffffffffffffff81111561163d5761163d6115ca565b604051601f8201601f19908116603f0116810167ffffffffffffffff8111828210171561166c5761166c6115ca565b604052818152828201602001871015611683575f5ffd5b816020840160208301375f602083830101528093505050509250929050565b5f5f5f5f5f5f60c087890312156116b7575f5ffd5b505084359660208601359650604086013595606081013595506080810135945060a0013592509050565b5f5f604083850312156116f2575f5ffd5b6116fb8361157e565b946020939093013593505050565b602081525f82518060208401528060208501604085015e5f604082850101526040601f19601f83011684010191505092915050565b5f6020828403121561174e575f5ffd5b6115388261157e565b60208082526028908201527f56657374696e6720616d6f756e742068617320746f20626520677265617465726040820152670207468616e2024360c41b606082015260800190565b634e487b7160e01b5f52601160045260245ffd5b808201808211156111145761111461179f565b5f600182016117d7576117d761179f565b5060010190565b8082018281125f8312801582168215821617156117fd576117fd61179f565b505092915050565b8082025f8212600160ff1b841416156118205761182061179f565b81810583148215176111145761111461179f565b5f8261184e57634e487b7160e01b5f52601260045260245ffd5b600160ff1b82145f19841416156118675761186761179f565b500590565b5f6020828403121561187c575f5ffd5b5051919050565b5f60208284031215611893575f5ffd5b81518015158114611538575f5ffd5b5f82518060208501845e5f92019182525091905056fe360894a13ba1a3210667c828492db98dca3e2076cc3735a920a3ca505d382bbca264697066735822122055b8bc771a81a5065f5aad3e4aeaba10979035d2522d2866c9d3da362f84c89764736f6c634300081c0033",
  "linkReferences": {},
  "deployedLinkReferences": {},
  "immutableReferences": {
    "1659": [
      {
        "length": 32,
        "start": 4406
      },
      {
        "length": 32,
        "start": 4447
      },
      {
        "length": 32,
        "start": 4771
      }
    ]
  },
  "inputSourceName": "project/contracts/Vesting.sol",
  "buildInfoId": "solc-0_8_28-c1bcbbcc6d4c55e66e4f26a7199df93a9771e570"
}